{
  "_format": "hh-sol-artifact-1",
  "contractName": "NFT",
  "sourceName": "contracts/nft.sol",
  "abi": [
    {
      "inputs": [
        {
          "internalType": "address",
          "name": "marketplaceAddress",
          "type": "address"
        }
      ],
      "stateMutability": "nonpayable",
      "type": "constructor"
    },
    {
      "anonymous": false,
      "inputs": [
        {
          "indexed": true,
          "internalType": "address",
          "name": "owner",
          "type": "address"
        },
        {
          "indexed": true,
          "internalType": "address",
          "name": "approved",
          "type": "address"
        },
        {
          "indexed": true,
          "internalType": "uint256",
          "name": "tokenId",
          "type": "uint256"
        }
      ],
      "name": "Approval",
      "type": "event"
    },
    {
      "anonymous": false,
      "inputs": [
        {
          "indexed": true,
          "internalType": "address",
          "name": "owner",
          "type": "address"
        },
        {
          "indexed": true,
          "internalType": "address",
          "name": "operator",
          "type": "address"
        },
        {
          "indexed": false,
          "internalType": "bool",
          "name": "approved",
          "type": "bool"
        }
      ],
      "name": "ApprovalForAll",
      "type": "event"
    },
    {
      "anonymous": false,
      "inputs": [
        {
          "indexed": true,
          "internalType": "address",
          "name": "from",
          "type": "address"
        },
        {
          "indexed": true,
          "internalType": "address",
          "name": "to",
          "type": "address"
        },
        {
          "indexed": true,
          "internalType": "uint256",
          "name": "tokenId",
          "type": "uint256"
        }
      ],
      "name": "Transfer",
      "type": "event"
    },
    {
      "inputs": [
        {
          "internalType": "address",
          "name": "to",
          "type": "address"
        },
        {
          "internalType": "uint256",
          "name": "tokenId",
          "type": "uint256"
        }
      ],
      "name": "approve",
      "outputs": [],
      "stateMutability": "nonpayable",
      "type": "function"
    },
    {
      "inputs": [
        {
          "internalType": "address",
          "name": "owner",
          "type": "address"
        }
      ],
      "name": "balanceOf",
      "outputs": [
        {
          "internalType": "uint256",
          "name": "",
          "type": "uint256"
        }
      ],
      "stateMutability": "view",
      "type": "function"
    },
    {
      "inputs": [
        {
          "internalType": "string",
          "name": "tokenURI",
          "type": "string"
        }
      ],
      "name": "createToken",
      "outputs": [
        {
          "internalType": "uint256",
          "name": "",
          "type": "uint256"
        }
      ],
      "stateMutability": "nonpayable",
      "type": "function"
    },
    {
      "inputs": [
        {
          "internalType": "uint256",
          "name": "tokenId",
          "type": "uint256"
        }
      ],
      "name": "getApproved",
      "outputs": [
        {
          "internalType": "address",
          "name": "",
          "type": "address"
        }
      ],
      "stateMutability": "view",
      "type": "function"
    },
    {
      "inputs": [
        {
          "internalType": "address",
          "name": "owner",
          "type": "address"
        },
        {
          "internalType": "address",
          "name": "operator",
          "type": "address"
        }
      ],
      "name": "isApprovedForAll",
      "outputs": [
        {
          "internalType": "bool",
          "name": "",
          "type": "bool"
        }
      ],
      "stateMutability": "view",
      "type": "function"
    },
    {
      "inputs": [],
      "name": "name",
      "outputs": [
        {
          "internalType": "string",
          "name": "",
          "type": "string"
        }
      ],
      "stateMutability": "view",
      "type": "function"
    },
    {
      "inputs": [
        {
          "internalType": "uint256",
          "name": "tokenId",
          "type": "uint256"
        }
      ],
      "name": "ownerOf",
      "outputs": [
        {
          "internalType": "address",
          "name": "",
          "type": "address"
        }
      ],
      "stateMutability": "view",
      "type": "function"
    },
    {
      "inputs": [
        {
          "internalType": "address",
          "name": "from",
          "type": "address"
        },
        {
          "internalType": "address",
          "name": "to",
          "type": "address"
        },
        {
          "internalType": "uint256",
          "name": "tokenId",
          "type": "uint256"
        }
      ],
      "name": "safeTransferFrom",
      "outputs": [],
      "stateMutability": "nonpayable",
      "type": "function"
    },
    {
      "inputs": [
        {
          "internalType": "address",
          "name": "from",
          "type": "address"
        },
        {
          "internalType": "address",
          "name": "to",
          "type": "address"
        },
        {
          "internalType": "uint256",
          "name": "tokenId",
          "type": "uint256"
        },
        {
          "internalType": "bytes",
          "name": "_data",
          "type": "bytes"
        }
      ],
      "name": "safeTransferFrom",
      "outputs": [],
      "stateMutability": "nonpayable",
      "type": "function"
    },
    {
      "inputs": [
        {
          "internalType": "address",
          "name": "operator",
          "type": "address"
        },
        {
          "internalType": "bool",
          "name": "approved",
          "type": "bool"
        }
      ],
      "name": "setApprovalForAll",
      "outputs": [],
      "stateMutability": "nonpayable",
      "type": "function"
    },
    {
      "inputs": [
        {
          "internalType": "bytes4",
          "name": "interfaceId",
          "type": "bytes4"
        }
      ],
      "name": "supportsInterface",
      "outputs": [
        {
          "internalType": "bool",
          "name": "",
          "type": "bool"
        }
      ],
      "stateMutability": "view",
      "type": "function"
    },
    {
      "inputs": [],
      "name": "symbol",
      "outputs": [
        {
          "internalType": "string",
          "name": "",
          "type": "string"
        }
      ],
      "stateMutability": "view",
      "type": "function"
    },
    {
      "inputs": [
        {
          "internalType": "address",
          "name": "",
          "type": "address"
        }
      ],
      "name": "tokenCount",
      "outputs": [
        {
          "internalType": "uint256",
          "name": "",
          "type": "uint256"
        }
      ],
      "stateMutability": "view",
      "type": "function"
    },
    {
      "inputs": [
        {
          "internalType": "uint256",
          "name": "tokenId",
          "type": "uint256"
        }
      ],
      "name": "tokenURI",
      "outputs": [
        {
          "internalType": "string",
          "name": "",
          "type": "string"
        }
      ],
      "stateMutability": "view",
      "type": "function"
    },
    {
      "inputs": [
        {
          "internalType": "address",
          "name": "from",
          "type": "address"
        },
        {
          "internalType": "address",
          "name": "to",
          "type": "address"
        },
        {
          "internalType": "uint256",
          "name": "tokenId",
          "type": "uint256"
        }
      ],
      "name": "transferFrom",
      "outputs": [],
      "stateMutability": "nonpayable",
      "type": "function"
    }
  ],
  "bytecode": "0x60806040523480156200001157600080fd5b5060405162002fe938038062002fe98339818101604052810190620000379190620001e6565b6040518060400160405280600c81526020017f44656d6f6e20546f6b656e7300000000000000000000000000000000000000008152506040518060400160405280600581526020017f44656d6f6e0000000000000000000000000000000000000000000000000000008152508160009080519060200190620000bb9291906200011f565b508060019080519060200190620000d49291906200011f565b50505080600960006101000a81548173ffffffffffffffffffffffffffffffffffffffff021916908373ffffffffffffffffffffffffffffffffffffffff16021790555050620002c5565b8280546200012d9062000246565b90600052602060002090601f0160209004810192826200015157600085556200019d565b82601f106200016c57805160ff19168380011785556200019d565b828001600101855582156200019d579182015b828111156200019c5782518255916020019190600101906200017f565b5b509050620001ac9190620001b0565b5090565b5b80821115620001cb576000816000905550600101620001b1565b5090565b600081519050620001e081620002ab565b92915050565b600060208284031215620001f957600080fd5b60006200020984828501620001cf565b91505092915050565b60006200021f8262000226565b9050919050565b600073ffffffffffffffffffffffffffffffffffffffff82169050919050565b600060028204905060018216806200025f57607f821691505b602082108114156200027657620002756200027c565b5b50919050565b7f4e487b7100000000000000000000000000000000000000000000000000000000600052602260045260246000fd5b620002b68162000212565b8114620002c257600080fd5b50565b612d1480620002d56000396000f3fe608060405234801561001057600080fd5b50600436106100f55760003560e01c806356225a0911610097578063a22cb46511610066578063a22cb465146102aa578063b88d4fde146102c6578063c87b56dd146102e2578063e985e9c514610312576100f5565b806356225a09146101fc5780636352211e1461022c57806370a082311461025c57806395d89b411461028c576100f5565b8063095ea7b3116100d3578063095ea7b31461017857806323b872dd1461019457806342842e0e146101b057806345576f94146101cc576100f5565b806301ffc9a7146100fa57806306fdde031461012a578063081812fc14610148575b600080fd5b610114600480360381019061010f9190611cee565b610342565b6040516101219190612158565b60405180910390f35b610132610424565b60405161013f9190612173565b60405180910390f35b610162600480360381019061015d9190611d81565b6104b6565b60405161016f91906120f1565b60405180910390f35b610192600480360381019061018d9190611cb2565b61053b565b005b6101ae60048036038101906101a99190611bac565b610653565b005b6101ca60048036038101906101c59190611bac565b6106b3565b005b6101e660048036038101906101e19190611d40565b6106d3565b6040516101f391906123b5565b60405180910390f35b61021660048036038101906102119190611b47565b6107e1565b60405161022391906123b5565b60405180910390f35b61024660048036038101906102419190611d81565b6107f9565b60405161025391906120f1565b60405180910390f35b61027660048036038101906102719190611b47565b6108ab565b60405161028391906123b5565b60405180910390f35b610294610963565b6040516102a19190612173565b60405180910390f35b6102c460048036038101906102bf9190611c76565b6109f5565b005b6102e060048036038101906102db9190611bfb565b610b76565b005b6102fc60048036038101906102f79190611d81565b610bd8565b6040516103099190612173565b60405180910390f35b61032c60048036038101906103279190611b70565b610d2a565b6040516103399190612158565b60405180910390f35b60007f80ac58cd000000000000000000000000000000000000000000000000000000007bffffffffffffffffffffffffffffffffffffffffffffffffffffffff1916827bffffffffffffffffffffffffffffffffffffffffffffffffffffffff1916148061040d57507f5b5e139f000000000000000000000000000000000000000000000000000000007bffffffffffffffffffffffffffffffffffffffffffffffffffffffff1916827bffffffffffffffffffffffffffffffffffffffffffffffffffffffff1916145b8061041d575061041c82610dbe565b5b9050919050565b6060600080546104339061260b565b80601f016020809104026020016040519081016040528092919081815260200182805461045f9061260b565b80156104ac5780601f10610481576101008083540402835291602001916104ac565b820191906000526020600020905b81548152906001019060200180831161048f57829003601f168201915b5050505050905090565b60006104c182610e28565b610500576040517f08c379a00000000000000000000000000000000000000000000000000000000081526004016104f7906122f5565b60405180910390fd5b6004600083815260200190815260200160002060009054906101000a900473ffffffffffffffffffffffffffffffffffffffff169050919050565b6000610546826107f9565b90508073ffffffffffffffffffffffffffffffffffffffff168373ffffffffffffffffffffffffffffffffffffffff1614156105b7576040517f08c379a00000000000000000000000000000000000000000000000000000000081526004016105ae90612355565b60405180910390fd5b8073ffffffffffffffffffffffffffffffffffffffff166105d6610e94565b73ffffffffffffffffffffffffffffffffffffffff1614806106055750610604816105ff610e94565b610d2a565b5b610644576040517f08c379a000000000000000000000000000000000000000000000000000000000815260040161063b90612235565b60405180910390fd5b61064e8383610e9c565b505050565b61066461065e610e94565b82610f55565b6106a3576040517f08c379a000000000000000000000000000000000000000000000000000000000815260040161069a90612375565b60405180910390fd5b6106ae838383611033565b505050565b6106ce83838360405180602001604052806000815250610b76565b505050565b6000600760003373ffffffffffffffffffffffffffffffffffffffff1673ffffffffffffffffffffffffffffffffffffffff16815260200190815260200160002060008154809291906107259061266e565b91905055506009600760003373ffffffffffffffffffffffffffffffffffffffff1673ffffffffffffffffffffffffffffffffffffffff16815260200190815260200160002054106107ac576040517f08c379a00000000000000000000000000000000000000000000000000000000081526004016107a390612395565b60405180910390fd5b6107b6600861128f565b60006107c260086112a5565b90506107ce33826112b3565b6107d88184611481565b80915050919050565b60076020528060005260406000206000915090505481565b6000806002600084815260200190815260200160002060009054906101000a900473ffffffffffffffffffffffffffffffffffffffff169050600073ffffffffffffffffffffffffffffffffffffffff168173ffffffffffffffffffffffffffffffffffffffff1614156108a2576040517f08c379a000000000000000000000000000000000000000000000000000000000815260040161089990612275565b60405180910390fd5b80915050919050565b60008073ffffffffffffffffffffffffffffffffffffffff168273ffffffffffffffffffffffffffffffffffffffff16141561091c576040517f08c379a000000000000000000000000000000000000000000000000000000000815260040161091390612255565b60405180910390fd5b600360008373ffffffffffffffffffffffffffffffffffffffff1673ffffffffffffffffffffffffffffffffffffffff168152602001908152602001600020549050919050565b6060600180546109729061260b565b80601f016020809104026020016040519081016040528092919081815260200182805461099e9061260b565b80156109eb5780601f106109c0576101008083540402835291602001916109eb565b820191906000526020600020905b8154815290600101906020018083116109ce57829003601f168201915b5050505050905090565b6109fd610e94565b73ffffffffffffffffffffffffffffffffffffffff168273ffffffffffffffffffffffffffffffffffffffff161415610a6b576040517f08c379a0000000000000000000000000000000000000000000000000000000008152600401610a62906121f5565b60405180910390fd5b8060056000610a78610e94565b73ffffffffffffffffffffffffffffffffffffffff1673ffffffffffffffffffffffffffffffffffffffff16815260200190815260200160002060008473ffffffffffffffffffffffffffffffffffffffff1673ffffffffffffffffffffffffffffffffffffffff16815260200190815260200160002060006101000a81548160ff0219169083151502179055508173ffffffffffffffffffffffffffffffffffffffff16610b25610e94565b73ffffffffffffffffffffffffffffffffffffffff167f17307eab39ab6107e8899845ad3d59bd9653f200f220920489ca2b5937696c3183604051610b6a9190612158565b60405180910390a35050565b610b87610b81610e94565b83610f55565b610bc6576040517f08c379a0000000000000000000000000000000000000000000000000000000008152600401610bbd90612375565b60405180910390fd5b610bd2848484846114f5565b50505050565b6060610be382610e28565b610c22576040517f08c379a0000000000000000000000000000000000000000000000000000000008152600401610c19906122d5565b60405180910390fd5b6000600660008481526020019081526020016000208054610c429061260b565b80601f0160208091040260200160405190810160405280929190818152602001828054610c6e9061260b565b8015610cbb5780601f10610c9057610100808354040283529160200191610cbb565b820191906000526020600020905b815481529060010190602001808311610c9e57829003601f168201915b505050505090506000610ccc611551565b9050600081511415610ce2578192505050610d25565b600082511115610d17578082604051602001610cff9291906120cd565b60405160208183030381529060405292505050610d25565b610d2084611568565b925050505b919050565b6000600560008473ffffffffffffffffffffffffffffffffffffffff1673ffffffffffffffffffffffffffffffffffffffff16815260200190815260200160002060008373ffffffffffffffffffffffffffffffffffffffff1673ffffffffffffffffffffffffffffffffffffffff16815260200190815260200160002060009054906101000a900460ff16905092915050565b60007f01ffc9a7000000000000000000000000000000000000000000000000000000007bffffffffffffffffffffffffffffffffffffffffffffffffffffffff1916827bffffffffffffffffffffffffffffffffffffffffffffffffffffffff1916149050919050565b60008073ffffffffffffffffffffffffffffffffffffffff166002600084815260200190815260200160002060009054906101000a900473ffffffffffffffffffffffffffffffffffffffff1673ffffffffffffffffffffffffffffffffffffffff1614159050919050565b600033905090565b816004600083815260200190815260200160002060006101000a81548173ffffffffffffffffffffffffffffffffffffffff021916908373ffffffffffffffffffffffffffffffffffffffff160217905550808273ffffffffffffffffffffffffffffffffffffffff16610f0f836107f9565b73ffffffffffffffffffffffffffffffffffffffff167f8c5be1e5ebec7d5bd14f71427d1e84f3dd0314c0f7b2291e5b200ac8c7c3b92560405160405180910390a45050565b6000610f6082610e28565b610f9f576040517f08c379a0000000000000000000000000000000000000000000000000000000008152600401610f9690612215565b60405180910390fd5b6000610faa836107f9565b90508073ffffffffffffffffffffffffffffffffffffffff168473ffffffffffffffffffffffffffffffffffffffff16148061101957508373ffffffffffffffffffffffffffffffffffffffff16611001846104b6565b73ffffffffffffffffffffffffffffffffffffffff16145b8061102a57506110298185610d2a565b5b91505092915050565b8273ffffffffffffffffffffffffffffffffffffffff16611053826107f9565b73ffffffffffffffffffffffffffffffffffffffff16146110a9576040517f08c379a00000000000000000000000000000000000000000000000000000000081526004016110a090612315565b60405180910390fd5b600073ffffffffffffffffffffffffffffffffffffffff168273ffffffffffffffffffffffffffffffffffffffff161415611119576040517f08c379a0000000000000000000000000000000000000000000000000000000008152600401611110906121d5565b60405180910390fd5b61112483838361160f565b61112f600082610e9c565b6001600360008573ffffffffffffffffffffffffffffffffffffffff1673ffffffffffffffffffffffffffffffffffffffff168152602001908152602001600020600082825461117f9190612521565b925050819055506001600360008473ffffffffffffffffffffffffffffffffffffffff1673ffffffffffffffffffffffffffffffffffffffff16815260200190815260200160002060008282546111d6919061249a565b92505081905550816002600083815260200190815260200160002060006101000a81548173ffffffffffffffffffffffffffffffffffffffff021916908373ffffffffffffffffffffffffffffffffffffffff160217905550808273ffffffffffffffffffffffffffffffffffffffff168473ffffffffffffffffffffffffffffffffffffffff167fddf252ad1be2c89b69c2b068fc378daa952ba7f163c4a11628f55a4df523b3ef60405160405180910390a4505050565b6001816000016000828254019250508190555050565b600081600001549050919050565b600073ffffffffffffffffffffffffffffffffffffffff168273ffffffffffffffffffffffffffffffffffffffff161415611323576040517f08c379a000000000000000000000000000000000000000000000000000000000815260040161131a906122b5565b60405180910390fd5b61132c81610e28565b1561136c576040517f08c379a0000000000000000000000000000000000000000000000000000000008152600401611363906121b5565b60405180910390fd5b6113786000838361160f565b6001600360008473ffffffffffffffffffffffffffffffffffffffff1673ffffffffffffffffffffffffffffffffffffffff16815260200190815260200160002060008282546113c8919061249a565b92505081905550816002600083815260200190815260200160002060006101000a81548173ffffffffffffffffffffffffffffffffffffffff021916908373ffffffffffffffffffffffffffffffffffffffff160217905550808273ffffffffffffffffffffffffffffffffffffffff16600073ffffffffffffffffffffffffffffffffffffffff167fddf252ad1be2c89b69c2b068fc378daa952ba7f163c4a11628f55a4df523b3ef60405160405180910390a45050565b61148a82610e28565b6114c9576040517f08c379a00000000000000000000000000000000000000000000000000000000081526004016114c090612295565b60405180910390fd5b806006600084815260200190815260200160002090805190602001906114f092919061196b565b505050565b611500848484611033565b61150c84848484611614565b61154b576040517f08c379a000000000000000000000000000000000000000000000000000000000815260040161154290612195565b60405180910390fd5b50505050565b606060405180602001604052806000815250905090565b606061157382610e28565b6115b2576040517f08c379a00000000000000000000000000000000000000000000000000000000081526004016115a990612335565b60405180910390fd5b60006115bc611551565b905060008151116115dc5760405180602001604052806000815250611607565b806115e6846117ab565b6040516020016115f79291906120cd565b6040516020818303038152906040525b915050919050565b505050565b60006116358473ffffffffffffffffffffffffffffffffffffffff16611958565b1561179e578373ffffffffffffffffffffffffffffffffffffffff1663150b7a0261165e610e94565b8786866040518563ffffffff1660e01b8152600401611680949392919061210c565b602060405180830381600087803b15801561169a57600080fd5b505af19250505080156116cb57506040513d601f19601f820116820180604052508101906116c89190611d17565b60015b61174e573d80600081146116fb576040519150601f19603f3d011682016040523d82523d6000602084013e611700565b606091505b50600081511415611746576040517f08c379a000000000000000000000000000000000000000000000000000000000815260040161173d90612195565b60405180910390fd5b805181602001fd5b63150b7a0260e01b7bffffffffffffffffffffffffffffffffffffffffffffffffffffffff1916817bffffffffffffffffffffffffffffffffffffffffffffffffffffffff1916149150506117a3565b600190505b949350505050565b606060008214156117f3576040518060400160405280600181526020017f30000000000000000000000000000000000000000000000000000000000000008152509050611953565b600082905060005b6000821461182557808061180e9061266e565b915050600a8261181e91906124f0565b91506117fb565b60008167ffffffffffffffff811115611867577f4e487b7100000000000000000000000000000000000000000000000000000000600052604160045260246000fd5b6040519080825280601f01601f1916602001820160405280156118995781602001600182028036833780820191505090505b5090505b6000851461194c576001826118b29190612521565b9150600a856118c191906126b7565b60306118cd919061249a565b60f81b818381518110611909577f4e487b7100000000000000000000000000000000000000000000000000000000600052603260045260246000fd5b60200101907effffffffffffffffffffffffffffffffffffffffffffffffffffffffffffff1916908160001a905350600a8561194591906124f0565b945061189d565b8093505050505b919050565b600080823b905060008111915050919050565b8280546119779061260b565b90600052602060002090601f01602090048101928261199957600085556119e0565b82601f106119b257805160ff19168380011785556119e0565b828001600101855582156119e0579182015b828111156119df5782518255916020019190600101906119c4565b5b5090506119ed91906119f1565b5090565b5b80821115611a0a5760008160009055506001016119f2565b5090565b6000611a21611a1c846123f5565b6123d0565b905082815260208101848484011115611a3957600080fd5b611a448482856125c9565b509392505050565b6000611a5f611a5a84612426565b6123d0565b905082815260208101848484011115611a7757600080fd5b611a828482856125c9565b509392505050565b600081359050611a9981612c82565b92915050565b600081359050611aae81612c99565b92915050565b600081359050611ac381612cb0565b92915050565b600081519050611ad881612cb0565b92915050565b600082601f830112611aef57600080fd5b8135611aff848260208601611a0e565b91505092915050565b600082601f830112611b1957600080fd5b8135611b29848260208601611a4c565b91505092915050565b600081359050611b4181612cc7565b92915050565b600060208284031215611b5957600080fd5b6000611b6784828501611a8a565b91505092915050565b60008060408385031215611b8357600080fd5b6000611b9185828601611a8a565b9250506020611ba285828601611a8a565b9150509250929050565b600080600060608486031215611bc157600080fd5b6000611bcf86828701611a8a565b9350506020611be086828701611a8a565b9250506040611bf186828701611b32565b9150509250925092565b60008060008060808587031215611c1157600080fd5b6000611c1f87828801611a8a565b9450506020611c3087828801611a8a565b9350506040611c4187828801611b32565b925050606085013567ffffffffffffffff811115611c5e57600080fd5b611c6a87828801611ade565b91505092959194509250565b60008060408385031215611c8957600080fd5b6000611c9785828601611a8a565b9250506020611ca885828601611a9f565b9150509250929050565b60008060408385031215611cc557600080fd5b6000611cd385828601611a8a565b9250506020611ce485828601611b32565b9150509250929050565b600060208284031215611d0057600080fd5b6000611d0e84828501611ab4565b91505092915050565b600060208284031215611d2957600080fd5b6000611d3784828501611ac9565b91505092915050565b600060208284031215611d5257600080fd5b600082013567ffffffffffffffff811115611d6c57600080fd5b611d7884828501611b08565b91505092915050565b600060208284031215611d9357600080fd5b6000611da184828501611b32565b91505092915050565b611db381612555565b82525050565b611dc281612567565b82525050565b6000611dd382612457565b611ddd818561246d565b9350611ded8185602086016125d8565b611df6816127a4565b840191505092915050565b6000611e0c82612462565b611e16818561247e565b9350611e268185602086016125d8565b611e2f816127a4565b840191505092915050565b6000611e4582612462565b611e4f818561248f565b9350611e5f8185602086016125d8565b80840191505092915050565b6000611e7860328361247e565b9150611e83826127b5565b604082019050919050565b6000611e9b601c8361247e565b9150611ea682612804565b602082019050919050565b6000611ebe60248361247e565b9150611ec98261282d565b604082019050919050565b6000611ee160198361247e565b9150611eec8261287c565b602082019050919050565b6000611f04602c8361247e565b9150611f0f826128a5565b604082019050919050565b6000611f2760388361247e565b9150611f32826128f4565b604082019050919050565b6000611f4a602a8361247e565b9150611f5582612943565b604082019050919050565b6000611f6d60298361247e565b9150611f7882612992565b604082019050919050565b6000611f90602e8361247e565b9150611f9b826129e1565b604082019050919050565b6000611fb360208361247e565b9150611fbe82612a30565b602082019050919050565b6000611fd660318361247e565b9150611fe182612a59565b604082019050919050565b6000611ff9602c8361247e565b915061200482612aa8565b604082019050919050565b600061201c60298361247e565b915061202782612af7565b604082019050919050565b600061203f602f8361247e565b915061204a82612b46565b604082019050919050565b600061206260218361247e565b915061206d82612b95565b604082019050919050565b600061208560318361247e565b915061209082612be4565b604082019050919050565b60006120a860298361247e565b91506120b382612c33565b604082019050919050565b6120c7816125bf565b82525050565b60006120d98285611e3a565b91506120e58284611e3a565b91508190509392505050565b60006020820190506121066000830184611daa565b92915050565b60006080820190506121216000830187611daa565b61212e6020830186611daa565b61213b60408301856120be565b818103606083015261214d8184611dc8565b905095945050505050565b600060208201905061216d6000830184611db9565b92915050565b6000602082019050818103600083015261218d8184611e01565b905092915050565b600060208201905081810360008301526121ae81611e6b565b9050919050565b600060208201905081810360008301526121ce81611e8e565b9050919050565b600060208201905081810360008301526121ee81611eb1565b9050919050565b6000602082019050818103600083015261220e81611ed4565b9050919050565b6000602082019050818103600083015261222e81611ef7565b9050919050565b6000602082019050818103600083015261224e81611f1a565b9050919050565b6000602082019050818103600083015261226e81611f3d565b9050919050565b6000602082019050818103600083015261228e81611f60565b9050919050565b600060208201905081810360008301526122ae81611f83565b9050919050565b600060208201905081810360008301526122ce81611fa6565b9050919050565b600060208201905081810360008301526122ee81611fc9565b9050919050565b6000602082019050818103600083015261230e81611fec565b9050919050565b6000602082019050818103600083015261232e8161200f565b9050919050565b6000602082019050818103600083015261234e81612032565b9050919050565b6000602082019050818103600083015261236e81612055565b9050919050565b6000602082019050818103600083015261238e81612078565b9050919050565b600060208201905081810360008301526123ae8161209b565b9050919050565b60006020820190506123ca60008301846120be565b92915050565b60006123da6123eb565b90506123e6828261263d565b919050565b6000604051905090565b600067ffffffffffffffff8211156124105761240f612775565b5b612419826127a4565b9050602081019050919050565b600067ffffffffffffffff82111561244157612440612775565b5b61244a826127a4565b9050602081019050919050565b600081519050919050565b600081519050919050565b600082825260208201905092915050565b600082825260208201905092915050565b600081905092915050565b60006124a5826125bf565b91506124b0836125bf565b9250827fffffffffffffffffffffffffffffffffffffffffffffffffffffffffffffffff038211156124e5576124e46126e8565b5b828201905092915050565b60006124fb826125bf565b9150612506836125bf565b92508261251657612515612717565b5b828204905092915050565b600061252c826125bf565b9150612537836125bf565b92508282101561254a576125496126e8565b5b828203905092915050565b60006125608261259f565b9050919050565b60008115159050919050565b60007fffffffff0000000000000000000000000000000000000000000000000000000082169050919050565b600073ffffffffffffffffffffffffffffffffffffffff82169050919050565b6000819050919050565b82818337600083830152505050565b60005b838110156125f65780820151818401526020810190506125db565b83811115612605576000848401525b50505050565b6000600282049050600182168061262357607f821691505b6020821081141561263757612636612746565b5b50919050565b612646826127a4565b810181811067ffffffffffffffff8211171561266557612664612775565b5b80604052505050565b6000612679826125bf565b91507fffffffffffffffffffffffffffffffffffffffffffffffffffffffffffffffff8214156126ac576126ab6126e8565b5b600182019050919050565b60006126c2826125bf565b91506126cd836125bf565b9250826126dd576126dc612717565b5b828206905092915050565b7f4e487b7100000000000000000000000000000000000000000000000000000000600052601160045260246000fd5b7f4e487b7100000000000000000000000000000000000000000000000000000000600052601260045260246000fd5b7f4e487b7100000000000000000000000000000000000000000000000000000000600052602260045260246000fd5b7f4e487b7100000000000000000000000000000000000000000000000000000000600052604160045260246000fd5b6000601f19601f8301169050919050565b7f4552433732313a207472616e7366657220746f206e6f6e20455243373231526560008201527f63656976657220696d706c656d656e7465720000000000000000000000000000602082015250565b7f4552433732313a20746f6b656e20616c7265616479206d696e74656400000000600082015250565b7f4552433732313a207472616e7366657220746f20746865207a65726f2061646460008201527f7265737300000000000000000000000000000000000000000000000000000000602082015250565b7f4552433732313a20617070726f766520746f2063616c6c657200000000000000600082015250565b7f4552433732313a206f70657261746f7220717565727920666f72206e6f6e657860008201527f697374656e7420746f6b656e0000000000000000000000000000000000000000602082015250565b7f4552433732313a20617070726f76652063616c6c6572206973206e6f74206f7760008201527f6e6572206e6f7220617070726f76656420666f7220616c6c0000000000000000602082015250565b7f4552433732313a2062616c616e636520717565727920666f7220746865207a6560008201527f726f206164647265737300000000000000000000000000000000000000000000602082015250565b7f4552433732313a206f776e657220717565727920666f72206e6f6e657869737460008201527f656e7420746f6b656e0000000000000000000000000000000000000000000000602082015250565b7f45524337323155524953746f726167653a2055524920736574206f66206e6f6e60008201527f6578697374656e7420746f6b656e000000000000000000000000000000000000602082015250565b7f4552433732313a206d696e7420746f20746865207a65726f2061646472657373600082015250565b7f45524337323155524953746f726167653a2055524920717565727920666f722060008201527f6e6f6e6578697374656e7420746f6b656e000000000000000000000000000000602082015250565b7f4552433732313a20617070726f76656420717565727920666f72206e6f6e657860008201527f697374656e7420746f6b656e0000000000000000000000000000000000000000602082015250565b7f4552433732313a207472616e73666572206f6620746f6b656e2074686174206960008201527f73206e6f74206f776e0000000000000000000000000000000000000000000000602082015250565b7f4552433732314d657461646174613a2055524920717565727920666f72206e6f60008201527f6e6578697374656e7420746f6b656e0000000000000000000000000000000000602082015250565b7f4552433732313a20617070726f76616c20746f2063757272656e74206f776e6560008201527f7200000000000000000000000000000000000000000000000000000000000000602082015250565b7f4552433732313a207472616e736665722063616c6c6572206973206e6f74206f60008201527f776e6572206e6f7220617070726f766564000000000000000000000000000000602082015250565b7f6561636820616464726573732063616e206f6e6c79206d696e7420757020746f60008201527f203820746f6b656e730000000000000000000000000000000000000000000000602082015250565b612c8b81612555565b8114612c9657600080fd5b50565b612ca281612567565b8114612cad57600080fd5b50565b612cb981612573565b8114612cc457600080fd5b50565b612cd0816125bf565b8114612cdb57600080fd5b5056fea26469706673582212201c66baad5ab4ce90ebc1a44cd382a25bef95a1612d24ca26e684203992f902b864736f6c63430008040033",
  "linkReferences": {},
  "deployedLinkReferences": {}
}