{
  "_format": "hh-sol-artifact-1",
  "contractName": "NFT",
  "sourceName": "contracts/NFT.sol",
  "abi": [
    {
      "inputs": [
        {
          "internalType": "address",
          "name": "marketplaceAddress",
          "type": "address"
        }
      ],
      "stateMutability": "nonpayable",
      "type": "constructor"
    },
    {
      "anonymous": false,
      "inputs": [
        {
          "indexed": true,
          "internalType": "address",
          "name": "owner",
          "type": "address"
        },
        {
          "indexed": true,
          "internalType": "address",
          "name": "approved",
          "type": "address"
        },
        {
          "indexed": true,
          "internalType": "uint256",
          "name": "tokenId",
          "type": "uint256"
        }
      ],
      "name": "Approval",
      "type": "event"
    },
    {
      "anonymous": false,
      "inputs": [
        {
          "indexed": true,
          "internalType": "address",
          "name": "owner",
          "type": "address"
        },
        {
          "indexed": true,
          "internalType": "address",
          "name": "operator",
          "type": "address"
        },
        {
          "indexed": false,
          "internalType": "bool",
          "name": "approved",
          "type": "bool"
        }
      ],
      "name": "ApprovalForAll",
      "type": "event"
    },
    {
      "anonymous": false,
      "inputs": [
        {
          "indexed": true,
          "internalType": "address",
          "name": "from",
          "type": "address"
        },
        {
          "indexed": true,
          "internalType": "address",
          "name": "to",
          "type": "address"
        },
        {
          "indexed": true,
          "internalType": "uint256",
          "name": "tokenId",
          "type": "uint256"
        }
      ],
      "name": "Transfer",
      "type": "event"
    },
    {
      "inputs": [
        {
          "internalType": "address",
          "name": "to",
          "type": "address"
        },
        {
          "internalType": "uint256",
          "name": "tokenId",
          "type": "uint256"
        }
      ],
      "name": "approve",
      "outputs": [],
      "stateMutability": "nonpayable",
      "type": "function"
    },
    {
      "inputs": [
        {
          "internalType": "address",
          "name": "owner",
          "type": "address"
        }
      ],
      "name": "balanceOf",
      "outputs": [
        {
          "internalType": "uint256",
          "name": "",
          "type": "uint256"
        }
      ],
      "stateMutability": "view",
      "type": "function"
    },
    {
      "inputs": [
        {
          "internalType": "string",
          "name": "tokenURI",
          "type": "string"
        }
      ],
      "name": "createToken",
      "outputs": [
        {
          "internalType": "uint256",
          "name": "",
          "type": "uint256"
        }
      ],
      "stateMutability": "nonpayable",
      "type": "function"
    },
    {
      "inputs": [
        {
          "internalType": "uint256",
          "name": "tokenId",
          "type": "uint256"
        }
      ],
      "name": "getApproved",
      "outputs": [
        {
          "internalType": "address",
          "name": "",
          "type": "address"
        }
      ],
      "stateMutability": "view",
      "type": "function"
    },
    {
      "inputs": [],
      "name": "getTokenCount",
      "outputs": [
        {
          "internalType": "uint256",
          "name": "",
          "type": "uint256"
        }
      ],
      "stateMutability": "view",
      "type": "function"
    },
    {
      "inputs": [
        {
          "internalType": "address",
          "name": "owner",
          "type": "address"
        },
        {
          "internalType": "address",
          "name": "operator",
          "type": "address"
        }
      ],
      "name": "isApprovedForAll",
      "outputs": [
        {
          "internalType": "bool",
          "name": "",
          "type": "bool"
        }
      ],
      "stateMutability": "view",
      "type": "function"
    },
    {
      "inputs": [],
      "name": "name",
      "outputs": [
        {
          "internalType": "string",
          "name": "",
          "type": "string"
        }
      ],
      "stateMutability": "view",
      "type": "function"
    },
    {
      "inputs": [
        {
          "internalType": "uint256",
          "name": "tokenId",
          "type": "uint256"
        }
      ],
      "name": "ownerOf",
      "outputs": [
        {
          "internalType": "address",
          "name": "",
          "type": "address"
        }
      ],
      "stateMutability": "view",
      "type": "function"
    },
    {
      "inputs": [
        {
          "internalType": "address",
          "name": "from",
          "type": "address"
        },
        {
          "internalType": "address",
          "name": "to",
          "type": "address"
        },
        {
          "internalType": "uint256",
          "name": "tokenId",
          "type": "uint256"
        }
      ],
      "name": "safeTransferFrom",
      "outputs": [],
      "stateMutability": "nonpayable",
      "type": "function"
    },
    {
      "inputs": [
        {
          "internalType": "address",
          "name": "from",
          "type": "address"
        },
        {
          "internalType": "address",
          "name": "to",
          "type": "address"
        },
        {
          "internalType": "uint256",
          "name": "tokenId",
          "type": "uint256"
        },
        {
          "internalType": "bytes",
          "name": "_data",
          "type": "bytes"
        }
      ],
      "name": "safeTransferFrom",
      "outputs": [],
      "stateMutability": "nonpayable",
      "type": "function"
    },
    {
      "inputs": [
        {
          "internalType": "address",
          "name": "operator",
          "type": "address"
        },
        {
          "internalType": "bool",
          "name": "approved",
          "type": "bool"
        }
      ],
      "name": "setApprovalForAll",
      "outputs": [],
      "stateMutability": "nonpayable",
      "type": "function"
    },
    {
      "inputs": [
        {
          "internalType": "bytes4",
          "name": "interfaceId",
          "type": "bytes4"
        }
      ],
      "name": "supportsInterface",
      "outputs": [
        {
          "internalType": "bool",
          "name": "",
          "type": "bool"
        }
      ],
      "stateMutability": "view",
      "type": "function"
    },
    {
      "inputs": [],
      "name": "symbol",
      "outputs": [
        {
          "internalType": "string",
          "name": "",
          "type": "string"
        }
      ],
      "stateMutability": "view",
      "type": "function"
    },
    {
      "inputs": [
        {
          "internalType": "address",
          "name": "",
          "type": "address"
        }
      ],
      "name": "tokenCount",
      "outputs": [
        {
          "internalType": "uint256",
          "name": "",
          "type": "uint256"
        }
      ],
      "stateMutability": "view",
      "type": "function"
    },
    {
      "inputs": [
        {
          "internalType": "uint256",
          "name": "tokenId",
          "type": "uint256"
        }
      ],
      "name": "tokenURI",
      "outputs": [
        {
          "internalType": "string",
          "name": "",
          "type": "string"
        }
      ],
      "stateMutability": "view",
      "type": "function"
    },
    {
      "inputs": [
        {
          "internalType": "address",
          "name": "from",
          "type": "address"
        },
        {
          "internalType": "address",
          "name": "to",
          "type": "address"
        },
        {
          "internalType": "uint256",
          "name": "tokenId",
          "type": "uint256"
        }
      ],
      "name": "transferFrom",
      "outputs": [],
      "stateMutability": "nonpayable",
      "type": "function"
    }
  ],
  "bytecode": "0x60806040523480156200001157600080fd5b5060405162002f0f38038062002f0f8339818101604052810190620000379190620001e6565b6040518060400160405280600c81526020017f44656d6f6e20546f6b656e7300000000000000000000000000000000000000008152506040518060400160405280600581526020017f44656d6f6e0000000000000000000000000000000000000000000000000000008152508160009080519060200190620000bb9291906200011f565b508060019080519060200190620000d49291906200011f565b50505080600960006101000a81548173ffffffffffffffffffffffffffffffffffffffff021916908373ffffffffffffffffffffffffffffffffffffffff16021790555050620002c5565b8280546200012d9062000246565b90600052602060002090601f0160209004810192826200015157600085556200019d565b82601f106200016c57805160ff19168380011785556200019d565b828001600101855582156200019d579182015b828111156200019c5782518255916020019190600101906200017f565b5b509050620001ac9190620001b0565b5090565b5b80821115620001cb576000816000905550600101620001b1565b5090565b600081519050620001e081620002ab565b92915050565b600060208284031215620001f957600080fd5b60006200020984828501620001cf565b91505092915050565b60006200021f8262000226565b9050919050565b600073ffffffffffffffffffffffffffffffffffffffff82169050919050565b600060028204905060018216806200025f57607f821691505b602082108114156200027657620002756200027c565b5b50919050565b7f4e487b7100000000000000000000000000000000000000000000000000000000600052602260045260246000fd5b620002b68162000212565b8114620002c257600080fd5b50565b612c3a80620002d56000396000f3fe608060405234801561001057600080fd5b50600436106101005760003560e01c80636352211e11610097578063a22cb46511610066578063a22cb465146102d3578063b88d4fde146102ef578063c87b56dd1461030b578063e985e9c51461033b57610100565b80636352211e1461023757806370a082311461026757806378a895671461029757806395d89b41146102b557610100565b806323b872dd116100d357806323b872dd1461019f57806342842e0e146101bb57806345576f94146101d757806356225a091461020757610100565b806301ffc9a71461010557806306fdde0314610135578063081812fc14610153578063095ea7b314610183575b600080fd5b61011f600480360381019061011a9190611ca6565b61036b565b60405161012c91906120ed565b60405180910390f35b61013d61044d565b60405161014a9190612108565b60405180910390f35b61016d60048036038101906101689190611d39565b6104df565b60405161017a9190612086565b60405180910390f35b61019d60048036038101906101989190611c6a565b610564565b005b6101b960048036038101906101b49190611b64565b61067c565b005b6101d560048036038101906101d09190611b64565b6106dc565b005b6101f160048036038101906101ec9190611cf8565b6106fc565b6040516101fe919061232a565b60405180910390f35b610221600480360381019061021c9190611aff565b610788565b60405161022e919061232a565b60405180910390f35b610251600480360381019061024c9190611d39565b6107a0565b60405161025e9190612086565b60405180910390f35b610281600480360381019061027c9190611aff565b610852565b60405161028e919061232a565b60405180910390f35b61029f61090a565b6040516102ac919061232a565b60405180910390f35b6102bd61091b565b6040516102ca9190612108565b60405180910390f35b6102ed60048036038101906102e89190611c2e565b6109ad565b005b61030960048036038101906103049190611bb3565b610b2e565b005b61032560048036038101906103209190611d39565b610b90565b6040516103329190612108565b60405180910390f35b61035560048036038101906103509190611b28565b610ce2565b60405161036291906120ed565b60405180910390f35b60007f80ac58cd000000000000000000000000000000000000000000000000000000007bffffffffffffffffffffffffffffffffffffffffffffffffffffffff1916827bffffffffffffffffffffffffffffffffffffffffffffffffffffffff1916148061043657507f5b5e139f000000000000000000000000000000000000000000000000000000007bffffffffffffffffffffffffffffffffffffffffffffffffffffffff1916827bffffffffffffffffffffffffffffffffffffffffffffffffffffffff1916145b80610446575061044582610d76565b5b9050919050565b60606000805461045c90612580565b80601f016020809104026020016040519081016040528092919081815260200182805461048890612580565b80156104d55780601f106104aa576101008083540402835291602001916104d5565b820191906000526020600020905b8154815290600101906020018083116104b857829003601f168201915b5050505050905090565b60006104ea82610de0565b610529576040517f08c379a00000000000000000000000000000000000000000000000000000000081526004016105209061228a565b60405180910390fd5b6004600083815260200190815260200160002060009054906101000a900473ffffffffffffffffffffffffffffffffffffffff169050919050565b600061056f826107a0565b90508073ffffffffffffffffffffffffffffffffffffffff168373ffffffffffffffffffffffffffffffffffffffff1614156105e0576040517f08c379a00000000000000000000000000000000000000000000000000000000081526004016105d7906122ea565b60405180910390fd5b8073ffffffffffffffffffffffffffffffffffffffff166105ff610e4c565b73ffffffffffffffffffffffffffffffffffffffff16148061062e575061062d81610628610e4c565b610ce2565b5b61066d576040517f08c379a0000000000000000000000000000000000000000000000000000000008152600401610664906121ca565b60405180910390fd5b6106778383610e54565b505050565b61068d610687610e4c565b82610f0d565b6106cc576040517f08c379a00000000000000000000000000000000000000000000000000000000081526004016106c39061230a565b60405180910390fd5b6106d7838383610feb565b505050565b6106f783838360405180602001604052806000815250610b2e565b505050565b6000600760003373ffffffffffffffffffffffffffffffffffffffff1673ffffffffffffffffffffffffffffffffffffffff168152602001908152602001600020600081548092919061074e906125e3565b919050555061075d6008611247565b6000610769600861125d565b9050610775338261126b565b61077f8184611439565b80915050919050565b60076020528060005260406000206000915090505481565b6000806002600084815260200190815260200160002060009054906101000a900473ffffffffffffffffffffffffffffffffffffffff169050600073ffffffffffffffffffffffffffffffffffffffff168173ffffffffffffffffffffffffffffffffffffffff161415610849576040517f08c379a00000000000000000000000000000000000000000000000000000000081526004016108409061220a565b60405180910390fd5b80915050919050565b60008073ffffffffffffffffffffffffffffffffffffffff168273ffffffffffffffffffffffffffffffffffffffff1614156108c3576040517f08c379a00000000000000000000000000000000000000000000000000000000081526004016108ba906121ea565b60405180910390fd5b600360008373ffffffffffffffffffffffffffffffffffffffff1673ffffffffffffffffffffffffffffffffffffffff168152602001908152602001600020549050919050565b6000610916600861125d565b905090565b60606001805461092a90612580565b80601f016020809104026020016040519081016040528092919081815260200182805461095690612580565b80156109a35780601f10610978576101008083540402835291602001916109a3565b820191906000526020600020905b81548152906001019060200180831161098657829003601f168201915b5050505050905090565b6109b5610e4c565b73ffffffffffffffffffffffffffffffffffffffff168273ffffffffffffffffffffffffffffffffffffffff161415610a23576040517f08c379a0000000000000000000000000000000000000000000000000000000008152600401610a1a9061218a565b60405180910390fd5b8060056000610a30610e4c565b73ffffffffffffffffffffffffffffffffffffffff1673ffffffffffffffffffffffffffffffffffffffff16815260200190815260200160002060008473ffffffffffffffffffffffffffffffffffffffff1673ffffffffffffffffffffffffffffffffffffffff16815260200190815260200160002060006101000a81548160ff0219169083151502179055508173ffffffffffffffffffffffffffffffffffffffff16610add610e4c565b73ffffffffffffffffffffffffffffffffffffffff167f17307eab39ab6107e8899845ad3d59bd9653f200f220920489ca2b5937696c3183604051610b2291906120ed565b60405180910390a35050565b610b3f610b39610e4c565b83610f0d565b610b7e576040517f08c379a0000000000000000000000000000000000000000000000000000000008152600401610b759061230a565b60405180910390fd5b610b8a848484846114ad565b50505050565b6060610b9b82610de0565b610bda576040517f08c379a0000000000000000000000000000000000000000000000000000000008152600401610bd19061226a565b60405180910390fd5b6000600660008481526020019081526020016000208054610bfa90612580565b80601f0160208091040260200160405190810160405280929190818152602001828054610c2690612580565b8015610c735780601f10610c4857610100808354040283529160200191610c73565b820191906000526020600020905b815481529060010190602001808311610c5657829003601f168201915b505050505090506000610c84611509565b9050600081511415610c9a578192505050610cdd565b600082511115610ccf578082604051602001610cb7929190612062565b60405160208183030381529060405292505050610cdd565b610cd884611520565b925050505b919050565b6000600560008473ffffffffffffffffffffffffffffffffffffffff1673ffffffffffffffffffffffffffffffffffffffff16815260200190815260200160002060008373ffffffffffffffffffffffffffffffffffffffff1673ffffffffffffffffffffffffffffffffffffffff16815260200190815260200160002060009054906101000a900460ff16905092915050565b60007f01ffc9a7000000000000000000000000000000000000000000000000000000007bffffffffffffffffffffffffffffffffffffffffffffffffffffffff1916827bffffffffffffffffffffffffffffffffffffffffffffffffffffffff1916149050919050565b60008073ffffffffffffffffffffffffffffffffffffffff166002600084815260200190815260200160002060009054906101000a900473ffffffffffffffffffffffffffffffffffffffff1673ffffffffffffffffffffffffffffffffffffffff1614159050919050565b600033905090565b816004600083815260200190815260200160002060006101000a81548173ffffffffffffffffffffffffffffffffffffffff021916908373ffffffffffffffffffffffffffffffffffffffff160217905550808273ffffffffffffffffffffffffffffffffffffffff16610ec7836107a0565b73ffffffffffffffffffffffffffffffffffffffff167f8c5be1e5ebec7d5bd14f71427d1e84f3dd0314c0f7b2291e5b200ac8c7c3b92560405160405180910390a45050565b6000610f1882610de0565b610f57576040517f08c379a0000000000000000000000000000000000000000000000000000000008152600401610f4e906121aa565b60405180910390fd5b6000610f62836107a0565b90508073ffffffffffffffffffffffffffffffffffffffff168473ffffffffffffffffffffffffffffffffffffffff161480610fd157508373ffffffffffffffffffffffffffffffffffffffff16610fb9846104df565b73ffffffffffffffffffffffffffffffffffffffff16145b80610fe25750610fe18185610ce2565b5b91505092915050565b8273ffffffffffffffffffffffffffffffffffffffff1661100b826107a0565b73ffffffffffffffffffffffffffffffffffffffff1614611061576040517f08c379a0000000000000000000000000000000000000000000000000000000008152600401611058906122aa565b60405180910390fd5b600073ffffffffffffffffffffffffffffffffffffffff168273ffffffffffffffffffffffffffffffffffffffff1614156110d1576040517f08c379a00000000000000000000000000000000000000000000000000000000081526004016110c89061216a565b60405180910390fd5b6110dc8383836115c7565b6110e7600082610e54565b6001600360008573ffffffffffffffffffffffffffffffffffffffff1673ffffffffffffffffffffffffffffffffffffffff16815260200190815260200160002060008282546111379190612496565b925050819055506001600360008473ffffffffffffffffffffffffffffffffffffffff1673ffffffffffffffffffffffffffffffffffffffff168152602001908152602001600020600082825461118e919061240f565b92505081905550816002600083815260200190815260200160002060006101000a81548173ffffffffffffffffffffffffffffffffffffffff021916908373ffffffffffffffffffffffffffffffffffffffff160217905550808273ffffffffffffffffffffffffffffffffffffffff168473ffffffffffffffffffffffffffffffffffffffff167fddf252ad1be2c89b69c2b068fc378daa952ba7f163c4a11628f55a4df523b3ef60405160405180910390a4505050565b6001816000016000828254019250508190555050565b600081600001549050919050565b600073ffffffffffffffffffffffffffffffffffffffff168273ffffffffffffffffffffffffffffffffffffffff1614156112db576040517f08c379a00000000000000000000000000000000000000000000000000000000081526004016112d29061224a565b60405180910390fd5b6112e481610de0565b15611324576040517f08c379a000000000000000000000000000000000000000000000000000000000815260040161131b9061214a565b60405180910390fd5b611330600083836115c7565b6001600360008473ffffffffffffffffffffffffffffffffffffffff1673ffffffffffffffffffffffffffffffffffffffff1681526020019081526020016000206000828254611380919061240f565b92505081905550816002600083815260200190815260200160002060006101000a81548173ffffffffffffffffffffffffffffffffffffffff021916908373ffffffffffffffffffffffffffffffffffffffff160217905550808273ffffffffffffffffffffffffffffffffffffffff16600073ffffffffffffffffffffffffffffffffffffffff167fddf252ad1be2c89b69c2b068fc378daa952ba7f163c4a11628f55a4df523b3ef60405160405180910390a45050565b61144282610de0565b611481576040517f08c379a00000000000000000000000000000000000000000000000000000000081526004016114789061222a565b60405180910390fd5b806006600084815260200190815260200160002090805190602001906114a8929190611923565b505050565b6114b8848484610feb565b6114c4848484846115cc565b611503576040517f08c379a00000000000000000000000000000000000000000000000000000000081526004016114fa9061212a565b60405180910390fd5b50505050565b606060405180602001604052806000815250905090565b606061152b82610de0565b61156a576040517f08c379a0000000000000000000000000000000000000000000000000000000008152600401611561906122ca565b60405180910390fd5b6000611574611509565b9050600081511161159457604051806020016040528060008152506115bf565b8061159e84611763565b6040516020016115af929190612062565b6040516020818303038152906040525b915050919050565b505050565b60006115ed8473ffffffffffffffffffffffffffffffffffffffff16611910565b15611756578373ffffffffffffffffffffffffffffffffffffffff1663150b7a02611616610e4c565b8786866040518563ffffffff1660e01b815260040161163894939291906120a1565b602060405180830381600087803b15801561165257600080fd5b505af192505050801561168357506040513d601f19601f820116820180604052508101906116809190611ccf565b60015b611706573d80600081146116b3576040519150601f19603f3d011682016040523d82523d6000602084013e6116b8565b606091505b506000815114156116fe576040517f08c379a00000000000000000000000000000000000000000000000000000000081526004016116f59061212a565b60405180910390fd5b805181602001fd5b63150b7a0260e01b7bffffffffffffffffffffffffffffffffffffffffffffffffffffffff1916817bffffffffffffffffffffffffffffffffffffffffffffffffffffffff19161491505061175b565b600190505b949350505050565b606060008214156117ab576040518060400160405280600181526020017f3000000000000000000000000000000000000000000000000000000000000000815250905061190b565b600082905060005b600082146117dd5780806117c6906125e3565b915050600a826117d69190612465565b91506117b3565b60008167ffffffffffffffff81111561181f577f4e487b7100000000000000000000000000000000000000000000000000000000600052604160045260246000fd5b6040519080825280601f01601f1916602001820160405280156118515781602001600182028036833780820191505090505b5090505b600085146119045760018261186a9190612496565b9150600a85611879919061262c565b6030611885919061240f565b60f81b8183815181106118c1577f4e487b7100000000000000000000000000000000000000000000000000000000600052603260045260246000fd5b60200101907effffffffffffffffffffffffffffffffffffffffffffffffffffffffffffff1916908160001a905350600a856118fd9190612465565b9450611855565b8093505050505b919050565b600080823b905060008111915050919050565b82805461192f90612580565b90600052602060002090601f0160209004810192826119515760008555611998565b82601f1061196a57805160ff1916838001178555611998565b82800160010185558215611998579182015b8281111561199757825182559160200191906001019061197c565b5b5090506119a591906119a9565b5090565b5b808211156119c25760008160009055506001016119aa565b5090565b60006119d96119d48461236a565b612345565b9050828152602081018484840111156119f157600080fd5b6119fc84828561253e565b509392505050565b6000611a17611a128461239b565b612345565b905082815260208101848484011115611a2f57600080fd5b611a3a84828561253e565b509392505050565b600081359050611a5181612ba8565b92915050565b600081359050611a6681612bbf565b92915050565b600081359050611a7b81612bd6565b92915050565b600081519050611a9081612bd6565b92915050565b600082601f830112611aa757600080fd5b8135611ab78482602086016119c6565b91505092915050565b600082601f830112611ad157600080fd5b8135611ae1848260208601611a04565b91505092915050565b600081359050611af981612bed565b92915050565b600060208284031215611b1157600080fd5b6000611b1f84828501611a42565b91505092915050565b60008060408385031215611b3b57600080fd5b6000611b4985828601611a42565b9250506020611b5a85828601611a42565b9150509250929050565b600080600060608486031215611b7957600080fd5b6000611b8786828701611a42565b9350506020611b9886828701611a42565b9250506040611ba986828701611aea565b9150509250925092565b60008060008060808587031215611bc957600080fd5b6000611bd787828801611a42565b9450506020611be887828801611a42565b9350506040611bf987828801611aea565b925050606085013567ffffffffffffffff811115611c1657600080fd5b611c2287828801611a96565b91505092959194509250565b60008060408385031215611c4157600080fd5b6000611c4f85828601611a42565b9250506020611c6085828601611a57565b9150509250929050565b60008060408385031215611c7d57600080fd5b6000611c8b85828601611a42565b9250506020611c9c85828601611aea565b9150509250929050565b600060208284031215611cb857600080fd5b6000611cc684828501611a6c565b91505092915050565b600060208284031215611ce157600080fd5b6000611cef84828501611a81565b91505092915050565b600060208284031215611d0a57600080fd5b600082013567ffffffffffffffff811115611d2457600080fd5b611d3084828501611ac0565b91505092915050565b600060208284031215611d4b57600080fd5b6000611d5984828501611aea565b91505092915050565b611d6b816124ca565b82525050565b611d7a816124dc565b82525050565b6000611d8b826123cc565b611d9581856123e2565b9350611da581856020860161254d565b611dae81612719565b840191505092915050565b6000611dc4826123d7565b611dce81856123f3565b9350611dde81856020860161254d565b611de781612719565b840191505092915050565b6000611dfd826123d7565b611e078185612404565b9350611e1781856020860161254d565b80840191505092915050565b6000611e306032836123f3565b9150611e3b8261272a565b604082019050919050565b6000611e53601c836123f3565b9150611e5e82612779565b602082019050919050565b6000611e766024836123f3565b9150611e81826127a2565b604082019050919050565b6000611e996019836123f3565b9150611ea4826127f1565b602082019050919050565b6000611ebc602c836123f3565b9150611ec78261281a565b604082019050919050565b6000611edf6038836123f3565b9150611eea82612869565b604082019050919050565b6000611f02602a836123f3565b9150611f0d826128b8565b604082019050919050565b6000611f256029836123f3565b9150611f3082612907565b604082019050919050565b6000611f48602e836123f3565b9150611f5382612956565b604082019050919050565b6000611f6b6020836123f3565b9150611f76826129a5565b602082019050919050565b6000611f8e6031836123f3565b9150611f99826129ce565b604082019050919050565b6000611fb1602c836123f3565b9150611fbc82612a1d565b604082019050919050565b6000611fd46029836123f3565b9150611fdf82612a6c565b604082019050919050565b6000611ff7602f836123f3565b915061200282612abb565b604082019050919050565b600061201a6021836123f3565b915061202582612b0a565b604082019050919050565b600061203d6031836123f3565b915061204882612b59565b604082019050919050565b61205c81612534565b82525050565b600061206e8285611df2565b915061207a8284611df2565b91508190509392505050565b600060208201905061209b6000830184611d62565b92915050565b60006080820190506120b66000830187611d62565b6120c36020830186611d62565b6120d06040830185612053565b81810360608301526120e28184611d80565b905095945050505050565b60006020820190506121026000830184611d71565b92915050565b600060208201905081810360008301526121228184611db9565b905092915050565b6000602082019050818103600083015261214381611e23565b9050919050565b6000602082019050818103600083015261216381611e46565b9050919050565b6000602082019050818103600083015261218381611e69565b9050919050565b600060208201905081810360008301526121a381611e8c565b9050919050565b600060208201905081810360008301526121c381611eaf565b9050919050565b600060208201905081810360008301526121e381611ed2565b9050919050565b6000602082019050818103600083015261220381611ef5565b9050919050565b6000602082019050818103600083015261222381611f18565b9050919050565b6000602082019050818103600083015261224381611f3b565b9050919050565b6000602082019050818103600083015261226381611f5e565b9050919050565b6000602082019050818103600083015261228381611f81565b9050919050565b600060208201905081810360008301526122a381611fa4565b9050919050565b600060208201905081810360008301526122c381611fc7565b9050919050565b600060208201905081810360008301526122e381611fea565b9050919050565b600060208201905081810360008301526123038161200d565b9050919050565b6000602082019050818103600083015261232381612030565b9050919050565b600060208201905061233f6000830184612053565b92915050565b600061234f612360565b905061235b82826125b2565b919050565b6000604051905090565b600067ffffffffffffffff821115612385576123846126ea565b5b61238e82612719565b9050602081019050919050565b600067ffffffffffffffff8211156123b6576123b56126ea565b5b6123bf82612719565b9050602081019050919050565b600081519050919050565b600081519050919050565b600082825260208201905092915050565b600082825260208201905092915050565b600081905092915050565b600061241a82612534565b915061242583612534565b9250827fffffffffffffffffffffffffffffffffffffffffffffffffffffffffffffffff0382111561245a5761245961265d565b5b828201905092915050565b600061247082612534565b915061247b83612534565b92508261248b5761248a61268c565b5b828204905092915050565b60006124a182612534565b91506124ac83612534565b9250828210156124bf576124be61265d565b5b828203905092915050565b60006124d582612514565b9050919050565b60008115159050919050565b60007fffffffff0000000000000000000000000000000000000000000000000000000082169050919050565b600073ffffffffffffffffffffffffffffffffffffffff82169050919050565b6000819050919050565b82818337600083830152505050565b60005b8381101561256b578082015181840152602081019050612550565b8381111561257a576000848401525b50505050565b6000600282049050600182168061259857607f821691505b602082108114156125ac576125ab6126bb565b5b50919050565b6125bb82612719565b810181811067ffffffffffffffff821117156125da576125d96126ea565b5b80604052505050565b60006125ee82612534565b91507fffffffffffffffffffffffffffffffffffffffffffffffffffffffffffffffff8214156126215761262061265d565b5b600182019050919050565b600061263782612534565b915061264283612534565b9250826126525761265161268c565b5b828206905092915050565b7f4e487b7100000000000000000000000000000000000000000000000000000000600052601160045260246000fd5b7f4e487b7100000000000000000000000000000000000000000000000000000000600052601260045260246000fd5b7f4e487b7100000000000000000000000000000000000000000000000000000000600052602260045260246000fd5b7f4e487b7100000000000000000000000000000000000000000000000000000000600052604160045260246000fd5b6000601f19601f8301169050919050565b7f4552433732313a207472616e7366657220746f206e6f6e20455243373231526560008201527f63656976657220696d706c656d656e7465720000000000000000000000000000602082015250565b7f4552433732313a20746f6b656e20616c7265616479206d696e74656400000000600082015250565b7f4552433732313a207472616e7366657220746f20746865207a65726f2061646460008201527f7265737300000000000000000000000000000000000000000000000000000000602082015250565b7f4552433732313a20617070726f766520746f2063616c6c657200000000000000600082015250565b7f4552433732313a206f70657261746f7220717565727920666f72206e6f6e657860008201527f697374656e7420746f6b656e0000000000000000000000000000000000000000602082015250565b7f4552433732313a20617070726f76652063616c6c6572206973206e6f74206f7760008201527f6e6572206e6f7220617070726f76656420666f7220616c6c0000000000000000602082015250565b7f4552433732313a2062616c616e636520717565727920666f7220746865207a6560008201527f726f206164647265737300000000000000000000000000000000000000000000602082015250565b7f4552433732313a206f776e657220717565727920666f72206e6f6e657869737460008201527f656e7420746f6b656e0000000000000000000000000000000000000000000000602082015250565b7f45524337323155524953746f726167653a2055524920736574206f66206e6f6e60008201527f6578697374656e7420746f6b656e000000000000000000000000000000000000602082015250565b7f4552433732313a206d696e7420746f20746865207a65726f2061646472657373600082015250565b7f45524337323155524953746f726167653a2055524920717565727920666f722060008201527f6e6f6e6578697374656e7420746f6b656e000000000000000000000000000000602082015250565b7f4552433732313a20617070726f76656420717565727920666f72206e6f6e657860008201527f697374656e7420746f6b656e0000000000000000000000000000000000000000602082015250565b7f4552433732313a207472616e73666572206f6620746f6b656e2074686174206960008201527f73206e6f74206f776e0000000000000000000000000000000000000000000000602082015250565b7f4552433732314d657461646174613a2055524920717565727920666f72206e6f60008201527f6e6578697374656e7420746f6b656e0000000000000000000000000000000000602082015250565b7f4552433732313a20617070726f76616c20746f2063757272656e74206f776e6560008201527f7200000000000000000000000000000000000000000000000000000000000000602082015250565b7f4552433732313a207472616e736665722063616c6c6572206973206e6f74206f60008201527f776e6572206e6f7220617070726f766564000000000000000000000000000000602082015250565b612bb1816124ca565b8114612bbc57600080fd5b50565b612bc8816124dc565b8114612bd357600080fd5b50565b612bdf816124e8565b8114612bea57600080fd5b50565b612bf681612534565b8114612c0157600080fd5b5056fea2646970667358221220b491a86c84076a4f207ff95ac3eeca6aa76e4a35d4e5506a65033ec6e2417ace64736f6c63430008040033",
  "linkReferences": {},
  "deployedLinkReferences": {}
}